:020000040800F2
:1000000078070024850300082140000811400008FB
:1000100019400008490F0008014C000800000000CA
:100020000000000000000000000000008142000805
:10003000510F000800000000294000088942000814
:100040009F0300089F0300089F0300089F03000808
:100050009F0300089F0300089F0300089F030008F8
:100060009F0300089F0300089F0300089F030008E8
:100070009F0300089F0300089F0300089F030008D8
:100080009F0300089F0300089F0300089F030008C8
:100090009F0300089F0300089F0300089F030008B8
:1000A0009F0300089F0300089F0300089F030008A8
:1000B0009F0300089F0300089F0300089F03000898
:1000C0009F0300089F0300089F0300089F03000888
:1000D0009F0300089F0300089F0300089F03000878
:1000E0009F0300089F030008000000009F03000812
:1000F0009F0300089F0300089F0300089F03000858
:100100009F0300089F0300089F0300089F03000847
:100110009F0300089F0300089F0300089F03000837
:100120009F0300089F0300089F0300089F03000827
:100130009F0300089F0300089F0300089F03000817
:1001400000000000000000000000000000000000AF
:100150009F0300089F0300089F0300089F030008F7
:100160009F0300089F0300089F0300089F030008E7
:100170009F0300089F0300089F0300080000000081
:100180009F0300089F0300089F0300089F030008C7
:100190009F0300089F0300089F0300089F030008B7
:1001A0009F0300089F0300089F0300080000000051
:1001B0009F0300089F0300089F0300089F03000897
:1001C0009F0300089F0300080000000000000000DB
:1001D00000000000000000009F0300080000000075
:1001E000000000000000000000000000000000000F
:1001F00000000000000000009F0300089F030008AB
:100200009F0300089F030008000000009F030008F0
:100210009F0300089F0300089F0300089F03000836
:100220009F030008000000009F030008000000007A
:100230009F0300089F030008000000009F030008C0
:100240009F0300089F0300089F0300089F03000806
:100250009F0300089F0300089F0300089F030008F6
:100260009F0300089F0300089F0300089F030008E6
:100270009F0300089F0300089F0300080000000080
:100280009F0300089F0300089F0300089F030008C6
:10029000000000009F0300089F030008000000000A
:1002A000000000009F0300089F0300089F03000850
:1002B0009F0300089F0300089F0300089F03000896
:1002C0009F0300089F0300089F03000800F002F846
:1002D00000F049F80AA090E8000C82448344AAF197
:1002E0000107DA4501D100F03EF8AFF2090EBAE895
:1002F0000F0013F0010F18BFFB1A43F0010318475A
:100300006854000088540000103A24BF78C878C1AF
:10031000FAD8520724BF30C830C144BF04680C600B
:10032000704700000023002400250026103A28BF53
:1003300078C1FBD8520728BF30C148BF0B60704757
:10034000662905F0A281002070471FB505F090F9DD
:1003500000F0A4FB04000020002105F073F9E06028
:100360001FBD10B510BD00F099FC1146FFF7EDFF61
:1003700004F04AFC00F0B7FC03B4FFF7F2FF03BC43
:1003800000F0F8FC0948804709480047FEE7FEE70F
:10039000FEE7FEE7FEE7FEE7FEE7FEE7FEE7FEE735
:1003A00004480549054A064B7047000071430008A0
:1003B000CD02000878010024780700247803002487
:1003C0007803002453EA020C00F069802DE9F04B19
:1003D0004FF00006002B1FBFB3FA83F503FA05F4B4
:1003E00024FA05F65E4012BF1643B2FA82F502FA0D
:1003F00005F4C5F120051EBF22FA05FC44EA0C04F1
:10040000203556EA044C4FEA144418BF641C4FF0E0
:1004100000084FF00009904271EB030C39D300291A
:1004200019BFB1FA81F701FA07F6B0FA80F700FABE
:1004300007F6C7F120071EBF20FA07FC46EA0C06A4
:100440002037B6FBF4FCA7EB0507103F07F01F0BA6
:10045000CBF120062CFA06F60CFA0BFB44BFB34690
:100460000026202FA4BF5E464FF0000B5BEA060C6F
:1004700008BF4FF0010B19EB0B0948EB0608ABFB6B
:10048000027C06FB02CC0BFB03CCC01B71EB0C0106
:10049000C1E70B46024641464846BDE8F08B13B51E
:1004A000084318BF4FF0FF300146AFF30080BDE8AE
:1004B0001C4070470FB41CB5084B06AA7B44694624
:1004C0000090059800F0D1FA04460020694600F03B
:1004D000DFFA20461CBC5DF814FB0000D1050000CB
:1004E0002DE9F0474FF0000A89460446C0F820A0E5
:1004F0002046E1688847002876D0252806D0D4E930
:1005000001219047206A401C2062F1E7E168204603
:1005100000258847C4F81CA006460027C4F818A088
:100520002A2E09D0304605F085F838B304EB870849
:10053000303EC8F8186019E059F8041B204604EB57
:1005400087029161E1688847012F064618D1E0696A
:10055000002820DA25F020051DE0D8F8180000EB6F
:10056000800006EB40003038C8F818002046E168EB
:100570008847064605F05EF80028EED1012F0AD024
:100580002E2E08D12046E16888477F1C0646022FA0
:1005900045F02005C4DBA069002803DA404245F09D
:1005A0000105A061E80701D025F01005B6B1A6F15C
:1005B0004100192802D8203645F400654A463146E4
:1005C000204625604D46FFF7BBFE58B1012806D0F6
:1005D000ED1D25F0070000F1080989E704E005F1A9
:1005E000040985E730468AE7206ABDE8F0874FF0C6
:1005F000000200B5134694469646203922BFA0E873
:100600000C50A0E80C50B1F12001BFF4F7AF09077E
:1006100028BFA0E80C5048BF0CC05DF804EB89006F
:1006200028BF40F8042B08BF704748BF20F8022BB2
:1006300011F0804F18BF00F8012B704770477047CA
:1006400070472DE9FF4F0C461E464FF0FF378BB029
:10065000D2E90001DDF860800A908A46C1F30A55AC
:1006600005B93D46002108464FF00000BAF1000FE1
:1006700000F4400005DA00EB80004FF4400101EA8D
:1006800050004FEA9059B9F1010F00DDB9460A98C0
:1006900050EA4A000ED044F61050A5F2FF3545430B
:1006A0002F14B8F1000F1ED07542291E1EDDC9F1AE
:1006B00000021CE0B8F1010F4FF0000001D0302122
:1006C00003E0F24305E02154401CB042FBDB30461E
:1006D0000022002121540B99C1F80880C1E90020B3
:1006E0000FB0BDE8F08FBD1B6D1CDEE74A4600DA97
:1006F000694206A800F05CFA06AB93E8070003AB7A
:1007000083E8070050460A9904F0B4FB8DE807001F
:10071000A0F500501F3800900398002D0ADD42F22A
:100720001F014A460844002303A90390684604F0C9
:100730001DFE09E0A0F500504A461F38002303A91A
:100740000390684604F027FE8DE807000004000CC3
:1007500003D04FF0FF30410800E01046B8F1000F21
:1007600003D00022009215461EE0751E05D400F04D
:1007700099F9303262556D1EF9D5B346012208430E
:1007800002D000227F1C04E02078302801D1002212
:100790007F1E002A099784D01DE0112D07DA00F092
:1007A00081F9303262556D1C50EA0102F5D10843DF
:1007B00002D00098C8B10EE00021681E05E0235C5D
:1007C000625C63542254401E491C8142F7DBAB46F5
:1007D000A81B401E0990002004F80B000B98099AF2
:1007E000C0F80880C0E9002B7AE711264FF0000816
:1007F00057E72DE9F04F88460446D21D22F0070145
:1008000091B0D1E90001CDE90A0104F0FBFE0246F6
:100810000B98C00F01D02D2007E02068810701D57B
:100820002B2002E0202101EAC000032A099001D018
:10083000072A05DB03464146204600F079F90BE123
:100840002078800601D5E06900E00620B8F1650F48
:10085000814606D0B8F1660F18D0B8F1670F70D195
:1008600031E00020B9F1110F009001DB112301E00C
:1008700009F101030AAA01A90CA8FFF7E2FEDDE9CC
:100880000C70002609F10105834647E001204B4624
:1008900000904FF000470AAA01A90CA8FFF7D1FE6B
:1008A000DDE90DB00C995D46002610B909F1010093
:1008B0000D18B9EB050003D4C0F1FF3609F10105AD
:1008C000A5EB09002BE0B9F1010F01DA4FF00109A6
:1008D0000020B9F1110F0090484601DD112300E01E
:1008E00003460AAA01A90CA8FFF7ABFEDDE90C70CC
:1008F0004D4600268346207800070AD4AB4500DA2F
:100900005D4601A8012D04DD411911F8011C3029B3
:1009100007D04F4502DA17F1040F04DA01208246AE
:100920000FE06D1EEEE7002F02DCED1B3E4403E0FE
:10093000781CA84200DD7D1CB81B00F1010A4FF0B5
:1009400000472078000703D4AA4501DB4FF0FF3AA7
:100950000021B7F1004F0DF143088DF8431024D06A
:1009600002202B23002F01DA7F422D230A21021EB1
:10097000A0F1010000DC5FB197FBF1FC97FBF1F205
:1009800001FB1C7C17460CF1300C08F801CDEEE79A
:10099000A8F1010003702188090501D5452100E077
:1009A0006521A0F1010800F8011C09980FA9A1EB2D
:1009B0000807FF1D00B10120411901EBEA70A16990
:1009C0003844081A401EA0612078C00602D4204690
:1009D000AFF30080099828B1D4E901219047206A3B
:1009E000401C20622078C00622D52046AFF300804C
:1009F0001EE0002E04DBB34502DD01A8805D00E0AF
:100A00003020D4E901219047206A401C2062761CE6
:100A1000AAF101005FEA000A0AD100F03FF8C068BD
:100A20000168405CD4E901219047206A401C2062A3
:100A3000281EA5F10105DCDC07E0D4E9012118F846
:100A4000010B9047206A401C2062381EA7F1010765
:100A5000F3DC2046AFF30080032011B041E6000034
:100A600001694A1C02610878704700B58FB0CDE972
:100A700001310021059105497944CDE90310114662
:100A80006846FFF72DFD0FB000BD0000E5FFFFFF3A
:100A90000A6802F8010B0A607047000000487047BE
:100AA0003000002430B5B0F10A0271F100034FEAC2
:100AB000900E4EEA817EB0EB0E0061EB91014FEAA1
:100AC000101E4EEA017E10EB0E0041EB11114FEAB1
:100AD000102E4EEA016E10EB0E0041EB11214FEA91
:100AE000104E4EEA014E10EB0E0041EB1141401842
:100AF00041F100014FEAD00040EA41704FEAD101D4
:100B00004FEA810444EA907410EB800544EB010441
:100B10006D1944EB0404521BA3414FF0000348BF7E
:100B20000A3200D530BD401C41F1000130BD00004B
:100B30002DE9F0411F46044603260168072A01F407
:100B4000006004DB08B116A505E016A503E008B1B6
:100B500015A500E015A521F010002060A069C01EB9
:100B6000A0610FB1401EA0612046AFF300804FB1DD
:100B7000D4E9012138469047206A401C2062C01CFD
:100B8000206206E0206AFAE7D4E9012115F8010B9A
:100B90009047761EF8D22046AFF30080BDE8F08182
:100BA0004E414E006E616E00494E4600696E660011
:100BB0002DE9F047814616468AB0354878440DC87D
:100BC0008DE80D0032487844801C03AC0DC884E8E1
:100BD0000D0041F69B300844372190FBF1F290FB69
:100BE000F1F5A5F1800501FB12041B3C02D564421E
:100BF000012000E00020DFF898A080460027FA449A
:100C0000AAF1BE0A0EE0E0070AD03246684607EBBA
:100C1000470101230AEB810104F0BDFB8DE80700C9
:100C200064107F1C002CEED1194F7F44AE3F19E0B9
:100C3000E80715D007EB04100DF1180A90E80E0034
:100C40008AE80E00C068F04201D198190890324637
:100C5000012306A903A804F09EFB03AB83E8070069
:100C60006D10641C002DE3D14FF00103324669463C
:100C7000B8F1000F03A802D004F078FB01E004F003
:100C80008AFBC9E90001C9F808200AB0BDE8F0876D
:100C90004C4B000000487047100000247546FFF7D9
:100CA000F9FFAE4605006946534620F00700854629
:100CB00018B020B5FFF774FBBDE820404FF00006E8
:100CC0004FF000074FF000084FF0000BAC46ACE8C7
:100CD000C009ACE8C009ACE8C009ACE8C00921F023
:100CE00007018D46704710B50446AFF300802046DB
:100CF000BDE81040FFF740BB30B44FF0013C50F866
:100D0000042BCCFA52F451F8043BD51A20D1FCB98B
:100D100050F8042BCCFA52F451F8043BD51A17D1F1
:100D2000B4B950F8042BCCFA52F451F8043BD51A5C
:100D30000ED16CB950F8042BCCFA52F451F8043BA4
:100D4000D51A05D1002CDAD030BC4FF00000704726
:100D500029BAB1FA81F111F01801D1F120008440D3
:100D6000F2D1CA40CB4012F0FF0213F0FF0330BCB7
:100D7000D01A704701491820ABBEFEE726000200DA
:100D8000704700000000000010B50446006842F201
:100D9000001140F48070C4F20201884218D142F27E
:100DA0000830C4F20200006810F4403F18D002F08E
:100DB000D7FB6168B1F5803F05D0B1F5403F2BD03E
:100DC000B1F5003F29D1090CB0FBF1F025E000BFDF
:100DD00046F20830C5F60200006810F4403FE6D144
:100DE0004FF4002001F0F0FA6168A1F580224FEA8B
:100DF000B2420A2A11D8DFE802F0070707070707FF
:100E00003D3F4143450000BF6FF0010202EA5141FE
:100E1000B0FBF1F001E000BF80084BF62141C0F2C9
:100E2000BE01884206D82068816821F44071816043
:100E300010BD00BF47F64101C0F27D11884207D8BE
:100E400020680122816862F30921816010BD00BF22
:100E500021684FF28102C0F2FA229042886805D8D8
:100E6000022262F30920886010BD00BF40F4407088
:100E7000886010BD0009D0E74009CEE78009CCE7C3
:100E8000C009CAE7000AC8E7F0B581B004460068A7
:100E90008168C90752D14FF6C0778168C7F6FF77DE
:100EA00007F17F0211420BD0206E40F01000206647
:100EB000606E40F001006066012001B0F0BD00BF2F
:100EC0008168394041F00101816000F065FF42F224
:100ED000000246F20836C4F20202216802F580736D
:100EE00002F54275C5F60206994208BF2E469142A8
:100EF0000A4608BF2E469942054604BF42F2000248
:100F0000C4F2020230688A4218BF10F01F0015D1E7
:100F10000868C00712D18868C00704D188683840C3
:100F200040F00100886000F037FF401B2168032873
:100F3000EED30868C007EBD1B6E700BF002001B0D0
:100F4000F0BD000000000000FEE70000000000000F
:100F50007047000000000000EFF3108072B600BF81
:100F6000FEE7000000000000B0B582B090F85C2001
:100F7000012A03D10221084602B0B0BD42F2083274
:100F800000230193C4F202020093A2F542740368A5
:100F9000A34227D14FF6006C4FF60055CFF6FF7CE9
:100FA000CFF6FF7552F80C40535923435B0719D411
:100FB000D1F800E01368BEF1000F23F440441DD0C7
:100FC0004B6823431360535952F80C502B43DB07F3
:100FD00022D1136840F61F758968AB4341EA0E01C0
:100FE000194316E0016E41F0200101660121002243
:100FF00080F85C20084602B0B0BD00BF14605159B3
:1010000052F80C301943C90708D1116840F61F7314
:10101000994311600021EAE70021E8E70021E6E7B3
:101020002DE9F04381B00022009290F85C20012A63
:1010300004D10221084601B0BDE8F0830368012213
:1010400080F85C209A68520700F12A8246F2083C38
:101050004FF6FF7EC5F6020CC0F20F0EACF54278DB
:101060000C68434512D094FAA4F514EA0E0FB5FAB1
:1010700085F54FF0010608BFA50EA40E05F01F056B
:1010800006FA05F5DE693543DD6100E0A40E4D6822
:101090001F2204F01F04C5F3012605F01F05AA4016
:1010A00003EB8606AC40376B27EA02022243326329
:1010B0009A689C6802F0040204F00804121940F0D7
:1010C000FC800A6807268D684345C2F34064C2F37A
:1010D000045203EB840406FA02F6676905FA02F289
:1010E00027EA060642EA0602626115D041F20002D2
:1010F000C5F60042126802F07042B2F1805F71D111
:101100004A69DC680E2505EA540402FA04F40D6904
:10111000042D00F07D809FE04FF604520D69CFF65C
:10112000FF72042D4C695CF8026065D14FF658528D
:10113000CFF6FF725CF802201A6E0E68C2F384626A
:1011400016EA0E04C6F3846596FAA6F6B6FA86F693
:10115000374608BF2F46BA420CD11A6E22F0004221
:101160001A660A6802EA0E04C2F3846592FAA2F2D1
:10117000B2FA82F65A6E37465A6E002C08BF2F46D6
:10118000C2F38462BA420CD15A6E22F000425A660F
:101190000A6802EA0E04C2F3846592FAA2F2B2FA75
:1011A00082F69A6E37469A6E002C08BF2F46C2F31D
:1011B0008462BA420CD19A6E22F000429A660A68A2
:1011C00002EA0E04C2F3846592FAA2F2B2FA82F63F
:1011D000DA6E002CDA6E08BF2E46C2F38462B24289
:1011E00032D06AE0DA684C69DD68D2064FEA55050C
:1011F00008D405F00E0207E0062202EA96029440A7
:101200002AE000BF05F0080294400D69042D23D1A7
:101210001A6E0C6802F0F842A406A24200F0228185
:101220005A6E02F0F842A24200F026819A6E02F055
:10123000F842A24203D19A6E22F000429A66DA6E18
:1012400002F0F842A24238D1DA6E22F00042DA66A9
:101250009A68D20734D097E003F160060A684345E4
:1012600002F0F84256F8257042EA040207F00047FF
:1012700008BF4FF00047434542EA070246F82520E1
:101280000C6967D091F821200D7E56F8247027F064
:101290000047012A08BF07F100476A1EB2FA82F22E
:1012A00046F8247052090C69D2021D6904F01F042B
:1012B00025F4F045A2402A431A619A68D20763D107
:1012C00043450C68CD6817D005F01806D3F8C02048
:1012D00004EA0E072EFA06F6BA4326403243C3F854
:1012E000C0200022C4F2FF7295421DD0B4F1FF3F2E
:1012F00074DD0021D9E000BF4FF6A85905F01807AA
:10130000CFF6FF7904EA0E022EFA07F75CF80960BF
:1013100026EA020207EA040632434CF809200022BA
:10132000C4F2FF729542E1D114EA0E0F2ED094FA66
:10133000A4F2B2FA82F2013202F01E0702F01F0696
:10134000092F2CD8012206EB4607B24042EA075685
:1013500031E000BFACF52A72CD6952F8246026F066
:101360008076354342F824500C6991F8205052F8A9
:101370002460012D26F0007608BF06F1007642F8C1
:1013800024609A68D2079BD000218EE0012202EBF4
:10139000946202F01E0702F01F060A2FD2D3012228
:1013A00006EB4607B2400026CFF6206606EB07574D
:1013B0003A4342F00076C6F340620725C6F304566E
:1013C0008F6803EB8202B5405469B74024EA0505F3
:1013D0002F4357610C68B4F1FF3F8ADC42F20001F1
:1013E00042F20016C4F20201C4F2020601F5807254
:1013F00001F542779342624608BF3A468B4208BFE6
:101400003A4643F48077B742156841D18A68D1F8EB
:1014100008111143C90743D1002105F0E076CCF251
:1014200052718C4208BF15F4000145D00021CCF266
:1014300021318C4208BF15F0807141D00021CCF6DB
:1014400084318C424FF000012FD115F4800208BF87
:1014500043452AD1DCF8001021F0E071314341F41A
:1014600080016CE01A6E22F000421A665A6E02F099
:10147000F842A2427FF4DAAE5A6E22F000425A6677
:101480009A6E02F0F842A2423FF4D5AED7E600BF12
:101490004FF60051CFF6FF715CF80110C907BBD0C1
:1014A000016E41F0200101660121002280F85C20DC
:1014B000084601B0BDE8F083434505D00021F4E7BC
:1014C000434535D00021F0E7DCF8001042F66352C6
:1014D00021F0E071C0F23E52314341F40001CCF8FA
:1014E000001040F20801C2F2004109688909A1FB1D
:1014F00002129109022202EB41010091009919B3F5
:10150000009901390091009901B3009901390091C6
:101510000099E9B10099013900910099D1B1009980
:1015200001390091009900294FF00001E8D1BCE792
:10153000DCF8001021F0E071314341F08071CCF80B
:1015400000100021B1E700BF0021AEE70021ACE7A9
:101550000021AAE70021A8E70068006C704700009E
:1015600070B582B0044600284FF0000001902DD0E5
:10157000206E30B9204600F07FF90020606684F8C4
:101580005C002068816889004FF6C071C5F6FF7164
:1015900002D582680A4082608268D20031D48268B3
:1015A00001F18051114042F6635241F08051816057
:1015B00040F20801C0F23E52C2F2004109688909B6
:1015C000A1FB0212012101EB921105E00125284641
:1015D00002B070BD019901390191019989B1019958
:1015E00001390191019961B1019901390191019983
:1015F00000291FBF019901390191019918BF0029E4
:10160000E8D18168C90009D4216E012541F010019B
:101610002166616E41F00101616600E0002581688C
:10162000226E02F0100201F004018918216E59D1D6
:1016300021F4817146F2100C023121668168C5F6F1
:10164000020CC90724D142F2001240F48071C4F2A6
:101650000202914242F20001C4F2020140F0F6801F
:101660008A68D1F808311A43D20711D101F5807286
:1016700001F5427390421A4618BF0CF53E7288423B
:1016800008BF1A466168136823F47C13194311607C
:10169000617EE36BACF1100E704543EA413129D015
:1016A000A268114394F82020012A41EA024306D19E
:1016B000616A0022CFF6FE7202EB41410B43A16A40
:1016C00029B101F47871E26A194341EA02037045D5
:1016D00020D04CF20302C168CFF6F07211401943DA
:1016E000C16029E041F0100001252066284602B0C3
:1016F00070BD00BFD4E90232082B41EA020100F0BC
:10170000AB800C2B00F0AC801C2B40F0AD80102384
:101710001943C7E744F207025CF8041CCFF6F072E5
:10172000114019434CF8041CDCF80010626B21F0E6
:1017300040611143CCF800108168826801F0040117
:1017400002F0080289186DD1217E70454FEA81317F
:101750002AD0226BC36844F20306114323EA06022F
:101760001143C16094F8441001294BD14FF61E0279
:101770000169CFF6004200261140CFF6FF76D4E98A
:1017800012231943236D06EB02421143626D194384
:10179000236C114341F001010161016921F07041A5
:1017A000194301613BE000BF94F8382094F84430BD
:1017B00044F20306012B41EA42015CF8042C22EAC0
:1017C000060241EA02014CF8041C1BD14FF61E012F
:1017D000DCF80000CFF600410840D4E912120843BB
:1017E000216D1043626D0843216C104340F00100ED
:1017F000CCF80000DCF8000020F070400843CCF882
:1018000000000FE00169704521F0010101610169EB
:10181000226C21F0704141EA0201016102D02046B0
:10182000FFF7B2FA20682169026B012922F00F014B
:1018300002D1E269013A114301630121206E61F393
:1018400001002066284602B070BD00BF5CF8082C7D
:10185000D2073FF40BAF1BE70023194322E700BF79
:10186000082319431EE700BF182B18BF0023194394
:1018700018E7000000000000B0B5B4B0044602A8AC
:1018800024309021002533953295FEF7B0FE42F2C8
:1018900000012068C4F20201884201D034B0B0BD1A
:1018A0004FF400200290022003900F2104910421A4
:1018B0000790CDE90510C020CDE9080540F6863037
:1018C0000A9002A800F03CFF08B1FFF745FB44F284
:1018D000D840C5F60200016841F0200101600168AE
:1018E00001F0200101910199816841F0200181609E
:1018F00080682FA900F02000019001984FF48050DB
:101900002F90032030900020319041F20040C5F626
:10191000020000F04DF934B0B0BD0000000000003E
:101920002DE9F04F81B042F2000746F20832C4F2CE
:1019300002070446006807F5807807F54273C5F68C
:10194000020240458B4608BF1A46B84208BF1A46F5
:1019500063691668082B06F01F0903D108254FF0AC
:10196000010A0FE0B9F1090F3CD8012140F221230F
:1019700001FA09F1194235D0C068C00736D10425F3
:101980004FF0000A00F008FA21680A682A4241D1A3
:1019900006461BF1010034D0BBF1000F0DD100BF92
:1019A00000F0FAF92168086828420FD00868284238
:1019B000F6D02FE0086828422CD100F0EDF9801B0A
:1019C00021685845F6D908682842F3D1206E40F0C6
:1019D00004002066002084F85C00032001B0BDE80C
:1019E000F08F00BF106810F4404FC8D0206E40F058
:1019F00020002066012001B0BDE8F08F0868284271
:101A000008D10868284205D10868284204BF086840
:101A10002842F3D0206E40F400702066C86810F4AD
:101A2000406F0FD1607E68B9086800070AD5206E44
:101A300020F480702066206EC00403D4206E40F035
:101A400001002066414518BF0F46B9F1090F38461D
:101A500008BF0846B9F1050F08BF0846B9F1000FE5
:101A600008BF08468F4208BF3846BAF1000FC06869
:101A700002D0082003E000BF400401D40C2008601D
:101A8000002001B0BDE8F08FF0B581B042F2000552
:101A900046F20832C4F202050446006805F5807675
:101AA00005F54271C5F60202B04208BF0A46A842D7
:101AB00008BF0A4617688068400703D494F85C00A2
:101AC000012803D1022001B0F0BD00BF012084F83D
:101AD0005C002046FFF7D8F920B1002184F85C10A3
:101AE00001B0F0BD206840F60173B04207F01F015D
:101AF00018BF0546226E9A43854202F5807222661F
:101B000018BF002903D1226E22F480122266226EB1
:101B10000023D2044FF0000244BF636E23F006039B
:101B2000854263664FF01C03036084F85C2008D094
:101B3000092919D8012202FA01F140F221221142A9
:101B400012D0C168890104D5216E012262F30D31E2
:101B500021664FF6C0728168C7F6FF7211400431EA
:101B60008160002001B0F0BD206E40F4801020663E
:101B7000E8688001F5D5206E012161F30D30206603
:101B8000002001B0F0BD0000B0B5044600F004F93B
:101B900040F200010546C2F20041621C097818BFFC
:101BA0000C4400BF00F0F8F8401BA042FAD3B0BDCF
:101BB0002DE9F04F85B08E4642F20042C5F6020292
:101BC0000A2102909042DEF8005008BF0921002D42
:101BD000009100F0DD800298002400F12642009878
:101BE00002F1FF7201274FEAB2230026082B4FF0C3
:101BF000000838BF1846CDF80CE000900EE000BF9A
:101C0000DEF8005008F1010835FA07F006F1020687
:101C100007F1010704F1040400F0BA80A7F1010AFA
:101C2000012000FA0AF315EA0309E9D0DEF804B04E
:101C30000BF003056A1E012A22D802984FEA4801D8
:101C4000D0F808C00191032101FA06F203992CEAA9
:101C5000020CD1F80CE00EFA06F1DDF80CE041EAD6
:101C60000C01816041686FEA020CCBF300129943CA
:101C70000346019802FA0AF2114359600CE000BFD2
:101C80000320032D00FA06F0029B6FEA000C304699
:101C900002D13046032526E0D968DEF8082001EAA3
:101CA0000C018240022D41EA0201D9601BD102469B
:101CB0006FF0030000EA5A010F20194404F01C03DE
:101CC00000FA03F51046D1F820E0039A2EEA050544
:101CD000DDF80CE012699A40029B2A430A62DEF8A2
:101CE00004B00BF00305196805FA00F001EA0C01D5
:101CF0001BF4403F40EA010018603FF481AF44F21A
:101D0000F44140F20845C5F60201C5F600050F236F
:101D1000086840F002000860086800F002000490C3
:101D20002AF00300049904F00C0142598B409A43B5
:101D3000009B03FA01F1114341514FF0B04528686F
:101D4000DEF8041040EA0902CB0258BF20EA09027B
:101D50008B022A6040F20405C5F60005286840EAB7
:101D6000090258BF20EA09028B032A60D5F88000D7
:101D700040EA090258BF20EA0902C903C5F88020D9
:101D8000E86F40EA090258BF20EA0902EA6737E72C
:101D900005B0BDE8F08F000040F27010C2F20040C4
:101DA000006870470000000040F2000040F270112F
:101DB000C2F20040C2F2004100780A681044086094
:101DC000704700000000000080B5032000F0E8F834
:101DD00001F04EFC44F2184145F23073C5F60201A1
:101DE000C0F600030A68096801F00F01C2F303227C
:101DF000595C9A5C01F01F0102F01F02D04040F2D2
:101E00000C02C2F2004220FA01F1116040F2080116
:101E1000C2F2004108600F2000F00AF800281CBF41
:101E2000012080BD00F07CF8002080BD0000000093
:101E300070B540F20006C2F200463178E1B10446C6
:101E400040F20800C2F200404FF47A72B2FBF1F1A6
:101E50000068B0FBF1F001F0FFFE0F2C4FF0010520
:101E600008D838B94FF0FF3000222146002500F095
:101E700067F87460284670BD012070BD0000000046
:101E8000B0B502784EF69C5CCEF2000C43784CF86C
:101E9000043CFAB14368CCF80030037BC17A90F877
:101EA0000AE0457B447A42EA0372837B42EA01619D
:101EB000C27B41EACE41007A41EA854141EA434191
:101EC00041EA024141EA042141EA4000CCF8040021
:101ED000B0BD00BF0020CCF80000CCF80400B0BDBD
:101EE0004EF62450CEF20000BFF35F8F016821F45C
:101EF0008031016000210167704700000000000090
:101F00004EF6245140F00100CEF200010867086847
:101F100040F480300860BFF34F8FBFF36F8F70477E
:101F200081B044F2F440C5F60200016841F00201BC
:101F30000160006800F002000090009801B0704756
:101F4000B0B54EF60C5C00F00F05CEF2000C043D6F
:101F50006544DCF800304FF0FF3CC3F3022E8EF0F6
:101F60000703042B28BF0423BEF1030438BF002459
:101F70000CFA03F3B0F1FF3F21EA030105F10C0372
:101F800000F160450CFA04F0C8BF05F56443A140B8
:101F900022EA0000084300011870B0BD00000000F4
:101FA0004EF60C514FF6FF03CEF200010A681A40BC
:101FB00060F30A2242F0806040F0FD7008607047D4
:101FC000B0B544F60C05C5F602052968490729682D
:101FD00006D401F00701081A18BF0120B0BD00BFE8
:101FE00021F0070108432860FFF7D6FE044600BF32
:101FF00055F8080C800407D4FFF7CEFE001BB0F59F
:102000007A7FF5D90120B0BD0020B0BD00000000EE
:1020100080B501F0A5FA44F2204145F23072C5F6D0
:102020000201C0F600020968C1F30211515C01F01F
:102030001F01C84080BD000080B544F2304EC5F697
:10204000020E5EF8083C5EF8081CC1F3051C5EF841
:10205000041CBCF1000FDEF8042017D0C2F3CC0240
:1020600001F00101514303F00303022B00EE101AAB
:10207000B8EE400A10D0012B12D01BB95EF8301C0C
:10208000890611D49FED361A1CE000BF0021816043
:10209000C0E9001180BD00BF9FED301A12E000BF03
:1020A0009FED2D1A0EE000BF5EF8301C49F20002D1
:1020B000C0F2D032C1F3C10122FA01F101EE101ACF
:1020C000B8EE411ADEF800109FED263A6FF35F215B
:1020D00002EE101ADEF80010C1F34621B8EE422AD3
:1020E00000EE032A00EE10CAB7EE003AB8EE400A3E
:1020F00081EE000A32EE031A02EE101AB8EE422AFE
:1021000020EE010A32EE031A80EE011ABCEEC11A6B
:1021100080ED001ADEF80010C1F3064101EE101A3E
:10212000B8EE411A31EE031A80EE011ABCEEC11A64
:1021300080ED011ADEF80010C1F3066101EE101AFD
:10214000B8EE411A31EE031A80EE010ABCEEC00A65
:1021500010EE101A816080BD0024744A20BCBE4B72
:102160000024744C0000003980B544F2384EC5F6A6
:10217000020E5EF8103C5EF8101CC1F3053C5EF8E0
:102180000C1CBCF1000FDEF8042015D0C1F30011C7
:10219000C2F3CC02514300EE101A03F003010229EE
:1021A000B8EE400A0ED089B95EF8381C890611D401
:1021B0009FED361A1CE000BF00218160C0E90011CC
:1021C00080BD00BF9FED301A12E000BF9FED2D1AB9
:1021D0000EE000BF5EF8381C49F20002C0F2D032B7
:1021E000C1F3C10122FA01F101EE101AB8EE411A51
:1021F000DEF800109FED263A6FF35F2102EE101A11
:10220000DEF80010C1F34621B8EE422A00EE032AA0
:1022100000EE10CAB7EE003AB8EE400A81EE000AAE
:1022200032EE031A02EE101AB8EE422A20EE010A2C
:1022300032EE031A80EE011ABCEEC11A80ED001ACC
:10224000DEF80010C1F3064101EE101AB8EE411A93
:1022500031EE031A80EE011ABCEEC11A80ED011AAC
:10226000DEF80010C1F3066101EE101AB8EE411A53
:1022700031EE031A80EE010ABCEEC00A10EE101A0D
:10228000816080BD0024744A20BCBE4B0024744C85
:10229000000000390000000080B544F2404EC5F651
:1022A000020E5EF8183C5EF8181CC1F3055C5EF87F
:1022B000141CBCF1000FDEF8042015D0C1F300217E
:1022C000C2F3CC02514300EE101A03F003010229BD
:1022D000B8EE400A0ED089B95EF8401C890611D4C8
:1022E0009FED361A1CE000BF00218160C0E900119B
:1022F00080BD00BF9FED301A12E000BF9FED2D1A88
:102300000EE000BF5EF8401C49F20002C0F2D0327D
:10231000C1F3C10122FA01F101EE101AB8EE411A1F
:10232000DEF800109FED263A6FF35F2102EE101ADF
:10233000DEF80010C1F34621B8EE422A00EE032A6F
:1023400000EE10CAB7EE003AB8EE400A81EE000A7D
:1023500032EE031A02EE101AB8EE422A20EE010AFB
:1023600032EE031A80EE011ABCEEC11A80ED001A9B
:10237000DEF80010C1F3064101EE101AB8EE411A62
:1023800031EE031A80EE011ABCEEC11A80ED011A7B
:10239000DEF80010C1F3066101EE101AB8EE411A22
:1023A00031EE031A80EE010ABCEEC00A10EE101ADC
:1023B000816080BD0024744A20BCBE4B0024744C54
:1023C000000000390000000010B584B00146B0F5EF
:1023D000804F4FF0000031DAB1F5006F4EDAB1F501
:1023E000807F00F09580B1F5806F40F0148144F259
:1023F0000041C5F60201886DC0F34252042A00F282
:10240000108148F20000C0F2BB00DFE812F0D700F4
:10241000E900F30004010500C86C0A68520700F0E7
:102420004052086802D5002A00F05081C00540F1F2
:102430002481B2F1805F00F06A811EE1B1F5803F36
:1024400048DAB1F5804F00F08980B1F5004F40F0D7
:10245000E28044F20040C5F60200016D01F04051F7
:10246000B1F1005F00F0D080B1F1805F00F0D68064
:10247000002940F0D68000683BE100BF00F08C806E
:10248000B1F5805F40F0C78044F20041C5F602011B
:10249000086DC0F30232042A00F2C38048F2000043
:1024A000C0F2BB00DFE802F08A9CA6B7040000BFC0
:1024B000C86C0A68520700F04052086802D5002A2A
:1024C00000F00481C00540F1D880B2F1805F00F0D7
:1024D0001E81D2E000F07480B1F5002F40F09B80A7
:1024E00044F20040C5F60200816D01F44031B1F5BF
:1024F000003F00F09F80B1F5803F00F0A7800029E9
:1025000040F08F800068000140F18B806BE000BFDD
:1025100044F20041C5F60201086D00F00702042AEA
:1025200000F27F8048F20000C0F2BB00DFE802F05A
:1025300046586273040000BFC86C0A68520700F076
:102540004052086802D5002A00F0C080C00540F162
:102550009480B2F1805F00F0DA808EE044F20044B3
:10256000C5F60204A06DC0F30270052859D8DFE853
:1025700000F003959FA9B7BF00F0F2FF216A45F272
:102580003072C0F60002C1F30211515C01F01F016C
:10259000C84004B010BD00BF44F20041C5F60201BE
:1025A000886DC0F30262042A3BD848F20000C0F2F2
:1025B000BB00DFE802F003151F30550008682EE06D
:1025C00044F20040C5F60200C16C0068C90326D57C
:1025D000000126D501A8FFF7C7FD039804B010BD80
:1025E000086800011DD501A8FFF7BEFD019804B0E1
:1025F00010BD00BF0868800013D501A8FFF74CFE8E
:10260000019804B010BD00BF0068000109D501A801
:10261000FFF7AAFD029804B010BD00BF006880015A
:1026200002D4002004B010BD01A8FFF705FD0298F8
:1026300004B010BDC16C0268520701F0405102683D
:1026400060D500295ED1C2F3C10041E0006880007E
:10265000E7D501A8FFF720FE039804B010BD00BF26
:10266000C86C0A68520700F04052086800D56AB387
:10267000C00502D5B2F1805F49D00868B2F1005FB1
:1026800000F400314FF0000004BF47F64000C0F2F4
:102690007D10002908BF084604B010BD2068000165
:1026A000BFD501A8FFF760FD029804B010BD00BFC0
:1026B00020688000B5D501A8FFF7EEFD029804B0B0
:1026C00010BD00BF20684007ABD52068C0F3C10033
:1026D00049F20001C0F2D03121FA00F004B010BD7F
:1026E000206840F60011C005C0F23D0106E000BFC1
:1026F000206847F640018003C0F27D1101EAE070D6
:1027000004B010BDD20509D5B1F1805F06D140F605
:102710000010C0F23D0004B010BD00BF0068B1F170
:10272000005F00F400324FF0000004BF47F64000A5
:10273000C0F27D10002A08BF104604B010BD000092
:102740002DE9F0470446C07844F22C480007C5F64E
:1027500002083FD5206E4FEA305103290CD8DFE83C
:1027600001F00311293200BFD8F8001041F4003104
:10277000C8F8001027E000BF01266078C0070AD023
:102780002CE000BF201D022101F052FC0646C8B11A
:102790006078C00722D1354637466078400735D487
:1027A0003E46607800074AD43746E078800740F11B
:1027B0001C815FE004F12400022101F0CDFC0646FB
:1027C0000028E5D1206ED8F8241021F440110843E8
:1027D000C8F8240000266078C007DCD0606D0428AB
:1027E00000F28C803546DFE800F00391970A0A007A
:1027F000D8F80000354640F40030C8F80000002D3D
:102800002F4600F0938060784007C9D5D4F8A00027
:102810004FEA7050052800F29980DFE800F0039F2E
:10282000A5090909D8F8000040F40030C8F80000F4
:10283000002D2E4600F0A28060780007B4D5D4F8B1
:10284000A4004FEA3060052800F2A880DFE800F01D
:1028500004AEB40A0A0A00BFD8F8000040F4003001
:10286000C8F80000002D2F4600F0B080E078800707
:1028700040F1BB80A06C4FEA301003281AD8DFE883
:1028800000F003212B0300BF2E466DB36078C00615
:1028900000F1B08037466078800600F1C5803E4682
:1028A0006078400600F1D48037466078000640F139
:1028B0009281E1E0012501266078C00600F19A804E
:1028C000E8E700BFD8F8000040F40030C8F8000086
:1028D000002D2E46DAD107E0201D022101F0A8FBD1
:1028E0000546002D2E46D1D1D8F82000A16C20F04D
:1028F000300000250843C8F8200076E001250127B4
:10290000607840073FF582AF4AE700BF201D0021F5
:1029100001F08EFB05E000BF04F12400002101F06E
:102920001BFC0546002D2F467FF46DAFD8F8240020
:10293000616D20F0070000250843C8F824003746E1
:10294000607840077FF52CAF60E700BF01250126C6
:10295000607800073FF573AF26E700BF201D002118
:1029600001F066FB05E000BF04F12400002101F046
:10297000F3FB0546002D2E467FF45EAFD8F82C0001
:10298000D4F8A01020F4600000250843C8F82C00FB
:102990003E46607800077FF507AF50E70125012725
:1029A000E07880073FF566AF1FE000BF201D0021E3
:1029B00001F03EFB05E000BF04F12400002101F01E
:1029C000CBFB0546002D2F467FF450AFD8F82C00E6
:1029D000D4F8A41020F0E06000250843C8F82C00CB
:1029E0003746E07880073FF545AF3E466078C00641
:1029F0007FF550AFA06D4FEA3030042800F26C80B4
:102A0000DFE800F00472780A0A0000BFD8F800007E
:102A100040F40030C8F80000002D2F4600F074800C
:102A2000607880067FF53BAFE06D4FEA30400528C7
:102A300000F27A80DFE800F004808A04040400BF1A
:102A4000002D2E4600F08C80607840067FF52CAF7C
:102A5000D4F8A8004FEA3070052800F29180DFE832
:102A600000F00397A1030303002D2F4600F0A4807C
:102A70006078000640F1AF80A06E58B1B0F1005F01
:102A800010D0B0F1805F1FD1D8F8000040F40030C2
:102A9000C8F800002E466DB1E078C00700F0CF8086
:102AA0009DE000BF201D012101F0C2FA0546002D66
:102AB0002E46F1D1D8F82400A16E20F04050002518
:102AC0000843C8F8240086E001250126E078C00705
:102AD00040F08580B3E000BF0125012760788006C3
:102AE0003FF5A2AFDBE600BF201D002101F0A0FAF8
:102AF00005E000BF04F12400002101F02DFB054694
:102B0000002D2F467FF48CAFD8F82400A16D20F45F
:102B1000E04000250843C8F8240037466078800666
:102B20007FF5BDAE80E700BF012501266078400635
:102B30003FF58EAFB8E600BF201D012101F078FA05
:102B40000546002D2E467FF47FAF09E004F12400F6
:102B5000012101F001FB0546002D2E467FF474AFE4
:102B6000D8F82400E16D20F4E02000250843C8F8DF
:102B700024003E46607840067FF596AE68E700BFC9
:102B800001250127607800063FF576AF23E000BFFE
:102B9000201D012101F04CFA0546002D2F467FF43F
:102BA00067AF09E004F12400012101F0D5FA0546E0
:102BB000002D2F467FF45CAFD8F82C00D4F8A81075
:102BC00020F0E04000250843C8F82C003746607824
:102BD00000063FF551AF3E46E078C0072FD0606C4D
:102BE000032809D8DFE800F002101A02A946EDB167
:102BF000A07840062AD426E001254FF00109A078EC
:102C0000400620D522E000BFD8F8000040F4003094
:102C1000C8F80000002DA946EAD107E0201D0221D6
:102C200001F006FA0546002DA946E1D1D8F82000AA
:102C3000616C20F0030000250843C8F82000B1466D
:102C4000A078400602D44F4619E000BFD8F8D4035C
:102C500040F48070C8F8D403FFF79EF8064600BF22
:102C6000D8F8D403C00507D4FFF796F8801B642872
:102C7000F6D90325032702E0002D2F4664D02078E3
:102C8000C00700F0B680606F4FEAF000052800F240
:102C90008D80DFE800F003919B030303002D2E4697
:102CA00000F09E802078800700F1A88037462078C9
:102CB000400700F1B7803E462078800600F1C880CA
:102CC000B1462078400600F1DB804F4620780006B0
:102CD00000F1EE80B9462068010740F10181E06F04
:102CE000B0F5805F09D104F12400022101F034FA2B
:102CF000002818BF4FF00109E06FD8F8281021F420
:102D000040510843C8F828002068C10640F1EB8014
:102D1000D4F89000B0F5807F0AD104F1240002219C
:102D200001F01AFA002818BF4FF00109D4F89000FA
:102D3000D8F82C1021F440710843C8F82C00206802
:102D4000000340F1F780D0E0D8F84410D4F8AC008C
:102D5000414011F4407F11D0D8F84410D8F84420F5
:102D600042F48032C8F84420D8F8442021F440715D
:102D700022F48032C8F84420C8F84410B0F5807FAF
:102D800040F09C82FFF708F8064641F2883A032596
:102D9000032700BFD8F84400800700F18D82FEF7BA
:102DA000FBFF801B5045F5D969E700BF01250126CF
:102DB0002078800722D479E7201D012101F038F91D
:102DC0000546002D2E467FF46DAF09E004F1240086
:102DD000012101F0C1F90546002D2E467FF462AFB6
:102DE000D8F82800616F20F0380000250843C8F8A3
:102DF00028003E46207880077FF558AF206F0528D1
:102E000000F27E81DFE810F0060084018E010600EA
:102E100006000600002D2F4600F08E812078400726
:102E20007FF549AFD4F88C00052800F29581DFE8E2
:102E300010F007009B01A50107000700070000BF75
:102E4000002D2E4600F0A481207880067FF538AF53
:102E5000D4F888004FEA3070052800F2A981DFE835
:102E600010F00700AF01B90107000700070000BF1D
:102E7000002DA94600F0B881207840067FF525AFE7
:102E8000D4F894004FEAB020052800F2BD81DFE8B5
:102E900010F00700C301CD0107000700070000BFC5
:102EA000002D2F4600F0CC81207800067FF512AF70
:102EB000D4F898004FEA7030052800F2D181DFE89D
:102EC00010F00700D701E10107000700070000BF6D
:102ED000002DA94600F0E081206801073FF5FFAE14
:102EE000C1063FF515AF000324D5D4F89C00B0F51A
:102EF000003F0FD0B0F5803F06D0B8BB201D0021A9
:102F000001F096F805E000BF04F12400022101F071
:102F100023F905462E461DB1A07840073FD50DE0A8
:102F2000D8F82C00D4F89C1020F440300025084339
:102F3000C8F82C004E46A078400730D5D4F8800061
:102F4000B0F5401F0BD0B0F5001F15D0B0F5801FB5
:102F50006ED1D8F8000040F40030C8F800002F46C9
:102F60009DB1A078C0071ED167E000BF01260125F2
:102F7000A0784007E2D412E004F12400012101F01E
:102F8000EBF80546002D2F46EBD1D8F82800D4F8F1
:102F9000801020F4401000250843C8F82800374668
:102FA000A078C00749D0E06CB0F5803F28D0C8BBFE
:102FB000D8F8000040F40030C8F800002E463DB3B9
:102FC000206881003DD4810346D4C1025AD48102D5
:102FD00062D441006AD4B0F1FF3F78DD000208D529
:102FE000D8F82800D4F8841020F440000843C8F82A
:102FF0002800002E18BF01263046BDE8F08700BF2C
:10300000201D022101F014F80546002D2E46D7D1CF
:10301000D8F82000E16C20F4803000250843C8F87F
:1030200020000AE00126012520688100CBD508E0B8
:1030300001270125A078C007B5D13E462068810050
:10304000C1D504F12400022101F086F8002818BF40
:10305000012620688103B8D5A16F6FF0010202EB51
:103060003122022A0AD34FEA31223AB1012A06D18B
:10307000D8F8002042F40032C8F80020A5B3012699
:10308000C102A4D5D8F82410E26E21F0004111430A
:10309000C8F8241081029CD5D8F82410626E21F063
:1030A00080711143C8F82410410094D558F81C1CB5
:1030B00021F4004148F81C1CD4F8B01058F81C2C1E
:1030C000114348F81C1CB0F1FF3F3FF787AFD8F819
:1030D0002010226D21F040511143C8F82010000249
:1030E0007FF587AF7CE700BFD8F8282022F4407234
:1030F0001143C8F82810C1027FF569AFC2E700BFCD
:1031000001250127207840073FF58CAED3E500BFAD
:10311000201D012100F08CFF0546002D2F467FF475
:103120007DAE09E004F12400012101F015F8054607
:10313000002D2F467FF472AED8F82800216F20F0C2
:10314000070000250843C8F82800374620784007C4
:103150007FF5B1AD66E600BF012501262078800627
:103160003FF576AEACE500BF201D012100F060FF09
:103170000546002D2E467FF467AE09E004F12400D9
:10318000012100F0E9FF0546002D2E467FF45CAEDC
:10319000D8F82C00D4F88C1020F007000025084344
:1031A000C8F82C003E46207880067FF589AD4FE6B2
:1031B0004FF001090125207840063FF561AE84E516
:1031C000201D002100F034FF0546002DA9467FF4A4
:1031D00053AE09E004F12400022100F0BDFF0546D2
:1031E000002DA9467FF448AED8F82800D4F88810FE
:1031F00020F0E04000250843C8F82800B1462078B8
:1032000040067FF562AD3BE60127012520780006E8
:103210003FF54EAE5EE500BF201D002100F008FF27
:103220000546002D2F467FF43FAE09E004F124004F
:10323000022100F091FF0546002D2F467FF434AEA9
:10324000D8F82C00D4F8941020F4E050002508435E
:10325000C8F82C004F46207800067FF53BAD27E6E6
:103260004FF001090125206801077FF539AE36E5E9
:10327000201D002100F0DCFE0546002DA9467FF44C
:103280002BAE09E004F12400022100F065FF0546A1
:10329000002DA9467FF420AED8F82C00D4F8981061
:1032A00020F4604000250843C8F82C00B946206887
:1032B00001077FF515AE12E5D4F8AC004FF6CF73D9
:1032C00058F81C2CC0F2FF0300F4407122F47C5229
:1032D00003EA10136FF31F30B1F5407F08BF1A43A4
:1032E000002548F81C2CD8F844100843C8F84400BE
:1032F000A9E40000000000002DE9F04381B000289F
:1033000000F02A8142F200080446C5F200288946EE
:10331000D8F8000000F00F0088420ED2D8F8000064
:1033200020F00F0040EA0900C8F80000D8F80000BB
:1033300000F00F00484540F00F81206844F2184724
:103340004107C5F602070AD521693A6802F0700202
:10335000914204D93A6822F07002114339600107A2
:103360000AD561697A6802F07002914204D97A68DC
:1033700022F0700211437960C1060AD5A1697A680A
:1033800002F4E062914204D97A6822F4E0621143C7
:10339000796081060AD5E169BA6802F0700291424B
:1033A00004D9BA6822F070021143B96010F002012A
:1033B0000AD0E2683B6803F00F039A4204D93B68E5
:1033C00023F00F031A433A60C20746D0386820F44E
:1033D0007061D4E90102012841EA0201396009D093
:1033E00003280DD0022811D157F8181C890340F189
:1033F000B38010E057F8181CC90540F1AD800AE011
:1034000057F8181C890140F1A78004E057F8181CF0
:10341000490740F1A18057F8081C21F00701084333
:1034200047F8080CFEF7B8FC064641F2883500BFA5
:1034300057F8080C616800F03800B0EBC10F09D0F4
:10344000FEF7AAFC801BA842F2D9032001B0BDE818
:10345000F08300BF206800F0020151B1E1683A68D2
:1034600002F00F02914204D23A6822F00F02114397
:103470003960D8F8001001F00F0149450DD9D8F88E
:10348000001021F00F0141EA0901C8F80010D8F836
:10349000001001F00F0149455ED141070AD52169AD
:1034A0003A6802F07002914204D23A6822F0700247
:1034B0001143396001070AD561697A6802F0700228
:1034C000914204D27A6822F0700211437960C106F9
:1034D0000AD5A1697A6802F4E062914204D27A685E
:1034E00022F4E0621143796080060AD5E069B96888
:1034F00001F07001884204D2B96821F070010843DC
:10350000B86000F0B5F8396845F230733A68C0F633
:103510000003C1F3032102F00F02595C9A5C01F031
:103520001F0120FA01F102F01F0040F20C0221FA03
:1035300000F0C2F20042106040F2040040F20802C3
:10354000C2F20040C2F200420068116001B0BDE862
:10355000F043FEF76DBC00BF012001B0BDE8F08371
:1035600080B500F085F844F2184145F23073C5F695
:103570000201C0F600030A68096801F00F01C2F3F6
:103580000322595C9A5C02F01F0220FA02F201F059
:103590001F0040F20C0122FA00F0C2F20041086064
:1035A00040F20801C2F200410A6080BD0000000044
:1035B00080B500F05DF844F2184C45F23071C5F664
:1035C000020CC0F60001DCF80020DCF8003003F04B
:1035D0000F03C2F30322CB5C8A5C02F01F02D040CF
:1035E00003F01F0240F20C0320FA02F2C2F2004381
:1035F0001A6040F20803C2F200431860DCF80400CD
:10360000C0F30210085C00F01F0022FA00F080BD39
:1036100080B500F02DF844F2184C45F23071C5F633
:10362000020CC0F60001DCF80020DCF8003003F0EA
:103630000F03C2F30322CB5C8A5C02F01F02D0406E
:1036400003F01F0240F20C0320FA02F2C2F2004320
:103650001A6040F20803C2F200431860DCF804006C
:10366000C0F30220085C00F01F0022FA00F080BDC9
:1036700044F20041C5F602010869C0F3C200032804
:1036800010D002282CD088BB0868800649F20000C0
:10369000C0F2D03058BF70470968C1F3C101C840BB
:1036A000704700BF8A6A886AC0F3051CC86ABCF10B
:1036B000000F4B6B20D0C3F3CC0300F00100584344
:1036C00002F00302022A00EE100AB8EE400A15D0FA
:1036D000C2B90868800619D49FED281A23E000BFFC
:1036E00047F64000C0F27D10704700BF40F6001062
:1036F000C0F23D00704700BF002070479FED1E1ACA
:1037000011E000BF9FED1B1A0DE000BF086849F2F1
:103710000002C0F2D032C0F3C10022FA00F001EE84
:10372000100AB8EE411A086B9FED153A6FF35F204F
:1037300002EE100A086BC0F34620B8EE422A0130B0
:1037400000EE032A00EE10CAB7EE003AB8EE400AC7
:1037500081EE000A32EE031A20EE010A01EE100A91
:10376000B8EE411A80EE010ABCEEC00A10EE100A53
:10377000704700BF0024744A20BCBE4B0024744C28
:103780000000003900000000F0B581B0002800F012
:10379000CB800446007844F20046C007C5F6020616
:1037A00012D0306900F03801B06A102905D018290C
:1037B0002ED100F0030002282AD13068800303D5FF
:1037C0006068002800F0B0802078800755D5306907
:1037D00010F03801B06A2FD0182908BF5FEA807056
:1037E0002AD0E0683168002800F0088121F0190132
:1037F00008433060FEF7D0FA054600BF3068400746
:1038000034D4FEF7C9FA401B0228F7D959E100BFAA
:103810006068002800F02881B0F5A02F00F03C81FE
:10382000B0F5803F00F03C81306820F4803030609B
:10383000306820F4802036E130684007E06801D528
:10384000002871D0316821F0190108433060FEF77B
:10385000A3FA05463068400708D4FEF79DFA401BDE
:1038600002284FF00300F5D901B0F0BD706821695E
:1038700020F0FE4040EA016070602078C00618D554
:10388000306900F03801B06A082905D0182977D1CD
:1038900000F00300012873D13068C00502D5E0694B
:1038A000802841D1F068216A20F07C5040EA016014
:1038B000F060207800073BD4207880064CD4207834
:1038C000400775D4656A65B3306900F03800182880
:1038D00040F00C81012DB16A306B25D001F003025C
:1038E000A36A9A4220D1C1F30511E26A91421BD129
:1038F0000146226B6FF35F21013A914214D1C0F36C
:103900004622616B01398A420ED1C0F30642A16B97
:1039100001398A4208D1C0F30660E16B013988425F
:1039200002D1002001B0F0BD012001B0F0BD00BF08
:1039300060690028706F4FD040F001007067FEF79B
:103940002BFA0546706F8007B6D4FEF725FA401BA8
:103950000228F7D9B5E000BFA0690028306871D00F
:1039600040F480503060FEF717FA05463068800456
:10397000A5D4FEF711FA401B0228F7D9A1E000BF39
:10398000E0690028306800F09F8040F080003060DF
:10399000FEF702FA054600BF3068C0053FF582AF6A
:1039A000FEF7FAF9401B02284FF00300F4D95BE759
:1039B000D6F8000440F48070C6F80004FEF7ECF975
:1039C000054600BFD6F80004C00529D4FEF7E4F987
:1039D000401B6428F6D974E020F001007067FEF700
:1039E000DBF90546706F80077FF566AFFEF7D4F907
:1039F000401B02284FF00300F4D935E721F0010005
:103A00003060FEF7C9F90546306840077FF535AFED
:103A1000FEF7C2F9401B02284FF00300F4D923E758
:103A2000A068002800F08480052800F09B80012811
:103A300000F09C80306F20F001003067306F20F084
:103A4000040096E020F480503060FEF7A5F90546AA
:103A5000306880047FF533AFFEF79EF9401B0228E3
:103A60004FF00300F4D9FFE6306820F48030306076
:103A7000306820F480203060FEF78EF9054600BFE4
:103A8000306880037FF5A0AEFEF786F9401B6428FE
:103A90004FF00300F4D9E7E6306840F4802030604E
:103AA000306840F480303060FEF776F9054600BF9C
:103AB000306880033FF588AEFEF76EF9401B64283E
:103AC000F6D9032001B0F0BD20F080003060FEF791
:103AD00063F905463068C0057FF5EBAEFEF75CF98B
:103AE000401B02284FF00300F4D9BDE6306820F0F7
:103AF00080703060FEF750F9022D05460CD100BFF2
:103B00003068800148D5FEF747F9401B02284FF086
:103B10000300F5D9A8E600BF306880017FF501AF4A
:103B2000FEF73AF9401B02284FF00300F4D99BE658
:103B3000306F20F001003067306F20F004003067F4
:103B4000FEF72AF9054641F28837306F80077FF586
:103B5000B9AEFEF721F9401BB8424FF00300F4D98B
:103B600082E600BF306F40F004003067306F40F0F5
:103B700001003067FEF710F9054641F2883700BFB3
:103B8000306F80073FF59EAEFEF706F9401BB84246
:103B90004FF00300F4D967E604F12807B06A40F259
:103BA000F33188438ECF0843591E40EA02104FF488
:103BB0007E426FF35F21B06202EB47204FF4FE02BA
:103BC00080B2E36B0844A16B02EB01414FF0FE426F
:103BD00001F4FE0102EB0362084402F0FE410844D6
:103BE0003063F06A4FF6F87120F00100F062706BFC
:103BF000A26C884340EAC2007063F06A216C20F036
:103C00000C000843F062F06A616C20F00200084387
:103C1000F062F06A40F48030F062F06A40F4003004
:103C2000F062F06A40F48020F062F06A40F0010037
:103C3000F062306840F080703060FEF7ADF8044606
:103C4000306880013FF56DAEFEF7A6F8001B022834
:103C50004FF00300F4D907E6411E0020B0EB116FCE
:103C600002D00120704700BF4EF21002F023CEF2C6
:103C7000000251604EF62351CEF200010B70072175
:103C8000906011607047000090F88010012901D108
:103C9000022070472421C0F884100268136811685C
:103CA00023F0005321F001011160002141661360EF
:103CB0002022C0F8842080F8801008467047000059
:103CC00070B590F88020012A02D1022070BD00BF9B
:103CD0002422C0F884200268D0F864E0BEF1000F0E
:103CE000D2F800C0136823F001031360936823F037
:103CF000606341EA030191601AD0916845F2587EF1
:103D00009368C0F6000E5B0F45F26075C1F3426622
:103D1000C0F600051EF80340E95C2301B3FBF1F196
:103D20001EF80630AE5D1B01B3FBF6F302E000BFE8
:103D300001210123A0F86A102021A0F86830C2F800
:103D400000C0C0F88410002180F88010084670BDC3
:103D500070B590F88020012A02D1022070BD00BF0A
:103D60002422C0F884200268D0F864E0BEF1000F7D
:103D7000D2F800C0136823F001031360936823F0A6
:103D8000604341EA030191601AD0916845F2587E80
:103D90009368C0F6000E5B0F45F26075C1F3426692
:103DA000C0F600051EF80340E95C2301B3FBF1F106
:103DB0001EF80630AE5D1B01B3FBF6F302E000BF58
:103DC00001210123A0F86A102021A0F86830C2F870
:103DD00000C0C0F88410002180F88010084670BD33
:103DE000B0B582B0B0B10446D0F8840028B9002044
:103DF00084F88000204600F057F82420C4F884009E
:103E00002068016821F001010160204600F078FB84
:103E1000012803D1012002B0B0BD00BFA06A10B1DB
:103E2000204600F0FDFA2068416821F4904141608D
:103E3000816821F02A018160016841F0010101607F
:103E40000020C4F88C00FDF7A7FF216805460A682A
:103E500012070BD54FF4001100226FF07E40009046
:103E600020462B4600F0B8FD70B92168086840076D
:103E70000ED54FF4800100226FF07E400090204666
:103E80002B4600F0A9FD18B1032002B0B0BD00BF61
:103E90002020C4F88400C4F888000020E06684F87C
:103EA000800002B0B0BD000010B5B2B06946044653
:103EB000081DB021FCF79BFB44F600012068C4F20A
:103EC0000001884202D032B010BD00BF6846022413
:103ED0000094FEF735FC08B1FDF73EF844F2E040EF
:103EE000C5F60200816841F480218160816801F497
:103EF00080212D912D99016841F008010160006831
:103F00002DA900F008002D902D984FF44070CDE9B8
:103F10002D040020CDE92F000720319040F600400D
:103F2000C5F60200FDF744FE32B010BD00000000EF
:103F30002DE9F04381B00446D0F8840020280BD14D
:103F40000E4600294FF001005CD01746002A59D0D8
:103F500094F88000012803D1022001B0BDE8F0836D
:103F60001D46012084F880004FF00009C4F88C90B1
:103F70002120C4F88400FDF70FFFA4F85470A4F8C2
:103F800056700746A168B1F5805F07D12069002807
:103F90001CBF30464E46B046064601E04FF00008D2
:103FA00084F8809009E000BF206816F8011B816248
:103FB000B4F856000138A4F85600B4F8560088B199
:103FC0008021002220463B46009500F005FD88B97F
:103FD000002EE9D138F8020B216800266FF35F202C
:103FE0008862E5E74021002220463B46009500F02C
:103FF000F3FC18B1032001B0BDE8F0832020C4F821
:104000008400002001B0BDE8F08300000000000043
:10401000FEE7000000000000FEE7000000000000D6
:10402000FEE70000000000007047000000000000F4
:10403000F0B581B044F22C47C5F6020757F8042CBE
:1040400002F00302032A03D1012001B0F0BD00BF3A
:10405000054657F82C0C0C4620F0806047F82C0CD5
:10406000FDF79AFE064600BF57F82C0C000105D557
:10407000FDF792FE801B0228F6D964E057F8040C85
:10408000EE6895E80E0020F47C30012C40EA013007
:10409000A2F101016FF35F214FF47E4202EB432254
:1040A00047F8040C92B24FF0FE4302EB01004FF4CC
:1040B000FE012A6901EB064101F4FE0103EB0262F5
:1040C000084402F0FE410844F8603868696920F04D
:1040D000C00040EA010038603868A96920F020007B
:1040E00040EA0100386038684FF6F87120F010009F
:1040F00038603869EA6920EA01004FF4001140EAAB
:10410000C2003861386808BF4FF4801140F01000D9
:10411000002C386008BF4FF400213868084338602D
:1041200057F82C0C40F0806047F82C0CFDF734FE5B
:10413000044600BF57F82C0C000107D4FDF72CFEF5
:10414000001B0328F6D3032001B0F0BD002001B00E
:10415000F0BD000000000000F0B581B044F22C4733
:10416000C5F6020757F8042C02F00302032A03D114
:10417000012001B0F0BD00BF054657F82C0C0C46DD
:1041800020F0805047F82C0CFDF706FE064600BFD5
:1041900057F82C0C800005D5FDF7FEFD801B02288A
:1041A000F6D964E057F8040CEE6895E80E0020F0AC
:1041B0007C70012C40EA0150A2F101016FF35F21F4
:1041C0004FF47E4202EB432247F8040C92B24FF0C8
:1041D000FE4302EB01004FF4FE012A6901EB0641A8
:1041E00001F4FE0103EB0262084402F0FE410844C0
:1041F00078613868696920F4406040EA01003860FD
:104200003868A96920F4007040EA01003860386815
:104210004FF6F87120F480703860B869EA6920EAD6
:1042200001004FF0807140EAC200B861386808BFF1
:104230004FF4000140F48070002C386008BF4FF448
:10424000800138680843386057F82C0C40F08050E3
:1042500047F82C0CFDF7A0FD044600BF57F82C0CC6
:10426000800007D4FDF798FD001B0328F6D3032038
:1042700001B0F0BD002001B0F0BD00000000000062
:104280007047000000000000FDF78EBD0000000038
:1042900070B59CB044F61804022000251195CDE9B4
:1042A0000F55CDE90D55CDE90B550895C5F602041E
:1042B000CDE90655CDE90455CDE902550195022613
:1042C000FDF77EFE0095206866F38F302060206841
:1042D00000F44040009000982068800409D42068D1
:1042E00080045CBF20685FEA804002D420688004BC
:1042F000F2D54FF610400222CFF6FF70215862F33C
:1043000001012150012009904FF480310A911021C0
:104310001492CDE915100C20199009A80024CDE9BC
:104320001222CDE91722CDE91A44FFF72DFA28B160
:10433000EFF3108072B600BFFEE700BF3F20019090
:1043400003204FF48061CDE902040920049040204D
:10435000CDE90500CDE9071001A80021FEF7CCFF4B
:1043600020B1EFF3108072B6FEE700BF1CB070BD45
:104370004EF6885042F2000CCEF20000C5F2002C3E
:10438000026842F470020260DCF8000000F00F00E6
:10439000062806D8DCF80000072262F30300CCF8F8
:1043A000000044F200404EF67F51C5F60200CEF602
:1043B000F621026842F001020260002202610368F5
:1043C00019400160DCF80010090706D5DCF8001080
:1043D000072363F30301CCF8001040F2002182614F
:1043E000C261C0F20221026281620021C0F2FF11AB
:1043F000C16240F28021C0F2011101634263816316
:10440000C26301644264016821F480210160026694
:1044100044F20000C5F2002043F2D201016070476F
:10442000816ACA070CD18A0715D44A071ED40A0725
:1044300027D4CA0630D48A0639D44A0655D541E075
:104440000268D0F82CC0536823F4003343EA0C030D
:1044500053608A07E9D50268D0F830C0536823F466
:10446000803343EA0C0353604A07E0D50268D0F872
:1044700034C0536823F4802343EA0C0353600A07D3
:10448000D7D50268D0F838C0536823F4004343EA14
:104490000C035360CA06CED50268D0F83CC09368BE
:1044A00023F4805343EA0C0393608A06C5D502685F
:1044B000D0F840C0936823F4005343EA0C039360A0
:1044C0004A0612D50268D0F844C0BCF5801F536874
:1044D00023F4801343EA0C03536006D1536823F49A
:1044E000C00C836C43EA0C035360090658BF704745
:1044F0000168C06C4A6822F400221043486070478B
:1045000070B584B00446006804F1080340F6004E1C
:10451000E669C5F6000E0ECB194363690B4346F6F8
:10452000F3110568CCF6FF7133432940194301604C
:1045300041684FF2FF4321F44051704541EA0201C6
:104540004160A269C1F2FF131CBF216A0A4381685E
:1045500044F2544C1940C5F6020C1143816047F6F1
:10456000FF32C16AC4F2000221F00F01656A904275
:104570004FF0800341EA0501C16219DD41F2FF718C
:10458000C4F2010188422DDC47F60041C4F200016B
:10459000884257D041F20001C4F20101884239D06B
:1045A00041F20041C4F20101884233D057E000BF1C
:1045B00044F6FF31C4F20001884237DD44F6004181
:1045C000C4F2000188423DD045F20001C4F200016E
:1045D000884237D047F60001C4F20001884231D04A
:1045E0003DE000BF41F60001C4F20101884211D054
:1045F00041F60041C4F2010188420BD070452ED132
:10460000DCF8041001F00702062A80F081800FF226
:10461000BC3122E0DCF80010C1F3C202062A80F0AF
:10462000778045F22A71C0F6000116E044F200419D
:10463000C4F20001884205D044F60001C4F2000132
:1046400088420CD1DCF8001001F00702062A80F045
:104650005F8045F22471C0F600018B181B7870450D
:1046600040F60010C0F23D0000F05A80B6F5004F51
:1046700040F08480402B4FF0010100F29E81DFE882
:1046800013F0410019019C019C011F019C019C0138
:104690009C0127019C019C019C019C019C019C01A7
:1046A0009C012F019C019C019C019C019C019C018F
:1046B0009C019C019C019C019C019C019C019C0112
:1046C0009C013F019C019C019C019C019C019C015F
:1046D0009C019C019C019C019C019C019C019C01F2
:1046E0009C019C019C019C019C019C019C019C01E2
:1046F0009C019C019C019C019C019C019C019C01D2
:104700009C013D01FEF754FF002840F0D680E5E013
:104710008023704540F60010C0F23D007FF4A6AF44
:104720009A1E01211E2A00F27780DFE812F01F0096
:1047300046017B00460146014601830046014601D1
:10474000460146014601460146018D0046014601EB
:104750004601460146014601460146014601460121
:10476000460146014601460146019A00FDF750FC0C
:10477000002800F06680656A73E000BF402B4FF0B0
:10478000010100F21A81DFE813F04100D90018019D
:104790001801DF00180118011801E70018011801BD
:1047A00018011801180118011801EF00180118016B
:1047B0001801180118011801180118011801180131
:1047C00018011801180118011801FF00180118013B
:1047D0001801180118011801180118011801180111
:1047E0001801180118011801180118011801180101
:1047F00018011801180118011801180118011801F1
:1048000018011801180118011801FD00FEF7D0FE6B
:10481000002840F09680A5E0402B40F0CE804FF479
:1048200000401EE001A8FDF79FFC029800287FF4DD
:10483000A2AF06E001A8FDF72FFD029800287FF443
:104840009AAF0021B9E000BF5CF8540C800649F231
:104850000000C0F2D03004D55CF8541CC1F3C10193
:10486000C84045F240716268C0F6000131F8151089
:10487000B0FBF1F002EB420188424FF00101C0F0C1
:104880009C801303984200F29880010E00230002DE
:1048900010EB520041F10001FBF794FD4FF600527E
:1048A000A0F54071C0F20F029142C0F0808001215A
:1048B00083E000BFFEF7ACFE80B1656A20E000BF78
:1048C00001A8FDF751FC02980028F6D106E000BFD0
:1048D00001A8FDF7E1FC02980028EED100216CE070
:1048E0005CF8540C800649F20000C0F2D03007D5C5
:1048F0005CF8541CC1F3C101C84001E04FF4004012
:1049000045F24071C0F6000131F81510B0FBF1F02E
:1049100061684A0802EB40004FF6EF72B0FBF1F01D
:10492000A0F11001914207D84FF6F0710140C0F399
:10493000420008443BE000BF01213EE0FEF768FE74
:1049400080B1656A20E000BF01A8FDF70DFC029868
:104950000028F6D106E000BF01A8FDF79DFC0298F3
:104960000028EED1002128E05CF8540C800649F2C2
:104970000000C0F2D03007D55CF8541CC1F3C1016F
:10498000C84001E04FF4004045F240716268C0F653
:10499000000131F81510B0FBF1F000EB5200B0FB54
:1049A000F2F0A0F110014FF6EF72914204D82168A5
:1049B000C860002101E000BF01214FF00110A06696
:1049C0000020C4E91C00084604B070BD02040810B1
:1049D00020400000000000002DE9F041044600687E
:1049E0000D46C7693940491BB1FA81F14909914225
:1049F00040F0A780DDF81880B8F1000F2AD01646E5
:104A000018F1010140F08680C1692940491BB1FAC3
:104A100081F14909B14240F09480C1692940491BA4
:104A2000B1FA81F14909B14201BFC1692940491B6D
:104A3000B1FA81F104BF4909B14240F08280C169F5
:104A40002940491BB1FA81F14909B142DCD000206B
:104A5000BDE8F081FDF7A0F9206850E8000F21685B
:104A600020F4D07041E80002F2B1206850E8000F55
:104A7000216820F4D07041E80002002A1FBF20689E
:104A800050E8000F216820F4D0701CBF41E80002FC
:104A9000002A09D0206850E8000F216820F4D07067
:104AA00041E80002002AD7D1206850E8020F2168AF
:104AB00020F0010041E80202F2B1206850E8020F44
:104AC000216820F0010041E80202002A1FBF20688F
:104AD00050E8020F216820F001001CBF41E80202EB
:104AE000002A09D0206850E8020F216820F0010058
:104AF00041E80202002AD7D12020C4F8840004F142
:104B0000880020210160002084F880000320BDE897
:104B1000F08100BF1F4600BFFDF73EF9C01B4045B6
:104B20009AD820680168490744BFC1695FEA01510A
:104B30000AD4C0692840401BB0FA80F04009B04256
:104B4000EAD00020BDE8F0814FF40061016200E08E
:104B5000206850E8000F216820F4D07041E800027E
:104B6000EAB1206850E8000F216820F4D07041E8D5
:104B70000002A2B1206850E8000F216820F4D07034
:104B800041E80002002A1FBF206850E8000F21689A
:104B900020F4D0701CBF41E80002002AD8D1206860
:104BA00050E8020F216820F0010041E80202F2B152
:104BB000206850E8020F216820F0010041E802025D
:104BC000002A1FBF206850E8020F216820F0010072
:104BD0001CBF41E80202002A09D0206850E8020FF9
:104BE000216820F0010041E80202002AD7D12020EC
:104BF000C4F88400C4F8880004F18C0081E7000048
:104C0000FEE70000000000008EB044F6000401261C
:104C1000C4F200040596FDF763F948F21F7007908F
:104C200040F20110089005A800250695FDF728F927
:104C300004200427FDF764F9FDF7C6F8FFF728FB09
:104C400044F2E040C5F60200016841F00401016051
:104C5000016801F0040105910599016841F08001A6
:104C60000160016801F0800105910599016841F03A
:104C700020010160016801F020010591059901689A
:104C800041F0080101600068242100F0080005904F
:104C9000059805A80295CDE90055FBF7A8FC40F260
:104CA000700004F5EC31C2F2004001604FF40021C5
:104CB000C0E90115C0E904570583C66180F820509A
:104CC000C0E90A550563C0E90F5580F84450FCF768
:104CD00047FC28B1EFF3108072B600BFFEE700BFBB
:104CE00040F270006946C2F200400095FCF73CF9C2
:104CF00020B1EFF3108072B6FEE700BF4020002520
:104D0000C1F6201005900620069040F2FF70089032
:104D1000042005A9CDE9090540F270000795C2F20B
:104D200000408DF83550FCF77BF928B1EFF3108087
:104D300072B600BFFEE700BF40F2E0004FF4E13181
:104D4000C2F200400460C0E90115C0E903550C211E
:104D5000C0E90515C0E90755C0E90955FFF740F856
:104D600020B1EFF3108072B6FEE700BF40F2E00022
:104D70000021C2F20040FEF7EBFF28B1EFF31080F4
:104D800072B600BFFEE700BF40F2E0000021C2F2B1
:104D90000040FEF795FF28B1EFF3108072B600BF18
:104DA000FEE700BF40F2E000C2F20040FEF76CFFF9
:104DB00020B1EFF3108072B6FEE700BF23A040F2EF
:104DC000700440F2E007C2F200449FED258A0FF222
:104DD00098089FED249A05AEC2F20047E9461B49A8
:104DE0000091D0E901120191C16802920069CDE9F8
:104DF000031000BF2046FCF747FE64212046FCF765
:104E00008FFD2046FCF7A8FB00EE100A3046414615
:104E1000B8EE400A20EE080A20EE090AB7EEC00AF2
:104E200053EC102BFBF746FB85B264233846314622
:104E30002A46FFF77DF86423384649462A46FFF79D
:104E400077F84FF47A70FCF79FFED3E74661726DF6
:104E500065720A0000000000000000000000000071
:104E60003333534000008037252E326620560A0D1A
:104E7000000000005FEA400C08BF91F0000F4FEA0D
:104E80008C234FEAC12243EA51514FEA1C5018BF0C
:104E900000F5F0404FEA300018BF41F000415FEAF2
:104EA0006C5C00F02980BCF1FF3F08BF40F08040FF
:104EB0007047130C06BF12044FF0100C4FF0000C9B
:104EC000130E04BF12020CF1080C130F04BF1201E1
:104ED0000CF1040C930F04BF92000CF1020CD30FE1
:104EE00004BF52000CF1010C11464FF00002A0F17A
:104EF0001F00A0EB0C00704711F0004F08BF704777
:104F000031F000413FF4D5AF0B0C06BF09044FF060
:104F1000100C4FF0000C0B0E04BF09020CF1080C32
:104F20000B0F04BF09010CF1040C8B0F04BF8900A7
:104F30000CF1020CCB0F04BF49000CF1010CCCF1B9
:104F4000200322FA03F341EA030102FA0CF2A0EB78
:104F50000C0000F10100704723F07F4720F07F4CE8
:104F600080EA030000F00040ACEB070303F57C533C
:104F700003F1FF032DE9804909B44FEA144324EA01
:104F800003484FEA154B25EA0B4E0FF2042606EBB9
:104F900013273E7803FB0667C7F5000707FB06F6F5
:104FA0004FEAD64606F102064FEA543707FB066C75
:104FB000CCF1005C4FEA1C472CEA074C0CFB06F5D1
:104FC00007FB06F404EB15464FEA961649085FEA1C
:104FD000320234BF00204FF000404FEAD13706FBC9
:104FE00007FC4FEA1C4C0CFB0BF7D21B03FB0CF726
:104FF00061EB07010CFB0EF7B0EB074072EB1742B9
:105000000CFB08F734BFA2EB0742B2EB074261EB9F
:1050100017414FEA0C444FEA910706FB07FC4FEAA1
:105020001C4C0CFB0BF7B0EBC74072EB573203FB89
:105030000CF734BFA2EBC742B2EBC74261EB57316A
:105040000CFB0EF7B0EBC70072EB57720CFB08F7C6
:1050500034BFA2EBC702B2EBC70261EB57714FEA54
:10506000816141EA92114FEA826242EA90124FEA6C
:10507000806004EBCC04039F4FEAD13706FB07FCAA
:105080004FEA1C4C0CFB0BF7D21B03FB0CF761EB3C
:1050900007010CFB0EF7B0EB074072EB17420CFB5D
:1050A00008F734BFA2EB0742B2EB074261EB1741AE
:1050B0004FEA8C5504EB9C244FEA910706FB07FC52
:1050C0004FEA1C4C0CFB0BF7B0EBC74072EB5732AE
:1050D00003FB0CF734BFA2EBC742B2EBC74261EB54
:1050E00057310CFB0EF7B0EBC70072EB57720CFB9D
:1050F00008F734BFA2EBC702B2EBC70261EB5771EE
:105100004FEA816141EA92114FEA826242EA9012CB
:105110004FEA806015EB4C2544F100044FEAD1378B
:1051200006FB07FC4FEA1C4C0CFB0BF7D21B03FBE6
:105130000CF761EB07010CFB0EF7B0EB074072EBCD
:1051400017420CFB08F734BFA2EB0742B2EB074251
:1051500061EB17414FEA813141EA92414FEA8232D5
:1051600042EA90424FEA80304FEA0C7615EB1C156C
:1051700044F1000448EA03434EEA0B484FF0000EA6
:10518000B2EB080C71EB030724BF624639464EEBC5
:105190000E0E4FF0000B0018524149414BEB0B0B28
:1051A000B2EB080C71EB03077BF1000B24BF6246E6
:1051B00039464EEB0E0E4FF0000B0018524149419C
:1051C0004BEB0B0BB2EB080C71EB03077BF1000B05
:1051D00024BF624639464EEB0E0E51EA020718BF55
:1051E00046F0010616EB0E7655F1000254F100016F
:1051F00003D5BDE88901BDE80088BDE88901BDE8A7
:105200000048B619524141EB0101A3F10103704777
:1052100080807F7E7D7C7B7A7978777676757473F3
:10522000727171706F6E6E6D6C6C6B6A6A696868B2
:10523000676666656464636362616160605F5F5E48
:105240005E5D5D5C5C5B5B5A5A59595858575756BE
:105250005655555554545353525252515150505023
:105260004F4F4F4E4E4D4D4D4C4C4C4B4B4B4A4A75
:105270004A494949484848474747474646464545B9
:1052800045444444444343434342424242414141F2
:105290009C46002B30D477002BD04FEA37071CB543
:1052A00003B44FF010004FF01001BAF1000F06D018
:1052B000BCF1000FDCBF40F0080040F008014FF0E7
:1052C00000000FBCBDE810400BF1010BBBF1010F5A
:1052D00008BF5FEA170722BF12F1010211F10101B5
:1052E0004FF0004143F1000300F0004043EA0000AA
:1052F0007047F9D35708D0E746EA06464FEA164604
:1053000013F1400F1FDD13F1200FDFBF16430A46D4
:10531000002120335B42BED0C3F1200746EA064697
:105320004FEA164602FA07F746EA070622FA03F2A0
:10533000C3F1200701FA07F742EA070221FA03F155
:105340004FF00003A7E746EA020646EA06464FEAA0
:10535000164646EA0106BCBF46EA0646360C4FF042
:1053600000034FF000024FF0000194E72DE9804C5C
:1053700070B49A46934691E8380007C831EA400C69
:1053800048BF34EA430C03D5FFF7E6FDFFF780FF83
:10539000F0BCBDE8008C2DE9804C70B49A46934671
:1053A00091E8380007C810F0804F08BF13F0804F15
:1053B00003D100F005F8FFF76BFFF0BCBDE8008CEF
:1053C00020F07F4723F07F4C80EA030000F000408C
:1053D00007EB0C03A3F57C53A3F1FE0392F0000F3F
:1053E00000F0B38095F0000F00F077802DE90149BF
:1053F0004FEA114021EA00484FEA144624EA0647E2
:1054000000FB06FC08FB06F607FB08F818EB06484D
:105410004CEB164C00FB07F718EB07484CEB17401A
:105420004FEA124B22EA0B4E4FEA154625EA064791
:105430000BFB06FC0EFB06F607FB0EFE1EEB064EF4
:105440004CEB164C0BFB07F71EEB074E4CEB174BC8
:1054500018EB0B0840F1000018EB0E0B58EB00089E
:1054600040F100008F1A4FF000014FF000063CBFE2
:10547000C943661B14BFB5EB040C00213CBFC943F4
:10548000F61B4FEA174427EA04454FEA1C472CEA6B
:10549000074C04FB076205FB07F70CFB05F616EB50
:1054A000074642EB174204FB0CFC16EB0C4642EBA2
:1054B0001C421BEB060658EB020241414EEA8E0EDF
:1054C00046EA9E0601D5BDE80189B619524141EB75
:1054D0000101A3F10103BDE801894FEA144524EA63
:1054E00005464FEA114721EA074C05FB07F406FB86
:1054F00007F70CFB06F111EB074144EB174405FBE2
:105500000CFC11EB0C4144EB1C444FEA124722EA1D
:10551000074C05FB07F206FB07F70CFB06F616EB3C
:10552000074642EB174205FB0CFC16EB0C4642EB20
:105530001C456A1854F1000148BF7047B619524122
:1055400041EB0101A3F10103704795F0000F37D043
:105550004FEA114221EA02464FEA144724EA074C77
:1055600002FB07F106FB07F70CFB06F414EB0744FC
:1055700041EB174102FB0CFC14EB0C4441EB1C41CA
:105580004FEA154725EA074C02FB07F506FB07F72C
:105590000CFB06F616EB074645EB174502FB0CFC29
:1055A00016EB0C4645EB1C42121951F1000148BFA5
:1055B0007047B619524141EB0101A3F10103704755
:1055C0004FEA144524EA05464FEA114721EA074C01
:1055D00005FB07F106FB07F70CFB06F212EB07428F
:1055E00041EB174105FB0CFC12EB0C4251EB1C414B
:1055F0004FF0000648BF7047921841EB0101A3F13C
:105600000103704703B401984100009850EAC1209B
:1056100018BF04204A0D18BF40F0010040F2FF728D
:10562000B2EB515F08BF40F00200012808BF05201F
:1056300002B0704730380A2801D20120704700209C
:105640007047000010B500290AD00878002807D05C
:1056500005487844FBF750FB002801D0002010BD1E
:105660000248784410BD0000360100002E01000001
:10567000F1EE100A4FF6FF71C0F2C03120EA0100CE
:1056800040F04070E1EE100A7047FBF7B2B800003E
:1056900002400000000000A00000000005400000E3
:1056A000000000C8000000000C4000000000409C0A
:1056B00000000000194000000020BCBE00000000F7
:1056C00034400000BFC91B8E00000004B54000003C
:1056D000504BCFD06607E2CF010000006C410000C4
:1056E0003E8251AADFEEA73401000000D94200003B
:1056F000DCB5A0E23A301F97FFFFFFFFB445000082
:10570000FD25A0C8E9A3C14FFFFFFFFFFF3F000039
:105710000000008000000000FF3F0000000000804B
:105720000000000000040810204001040810204080
:105730000000000001020304010203040607080937
:10574000010002000400060008000A000C0010001E
:10575000200040008000000101010103070100005A
:105760000804020408010101A857000800000024F1
:105770001000000008030008B857000810000024BB
:1057800068070000240300081C000000430000001C
:10579000F8FFFFFF0C0000000E0000000F000000EB
:1057A0002E000000000000000100000010000000BA
:0857B0000090D0030090D0032B
:04000005080002CD20
:00000001FF
